{
  "_format": "hh-sol-artifact-1",
  "contractName": "DelegateRegistry",
  "sourceName": "contracts/DelegateRegistryBytes32.sol",
  "abi": [
    {
      "inputs": [],
      "name": "DuplicateDelegation",
      "type": "error"
    },
    {
      "anonymous": false,
      "inputs": [
        {
          "indexed": true,
          "internalType": "address",
          "name": "delegator",
          "type": "address"
        },
        {
          "indexed": true,
          "internalType": "string",
          "name": "id",
          "type": "string"
        },
        {
          "components": [
            {
              "internalType": "bytes32",
              "name": "id",
              "type": "bytes32"
            },
            {
              "internalType": "uint256",
              "name": "ratio",
              "type": "uint256"
            }
          ],
          "indexed": false,
          "internalType": "struct Delegation[]",
          "name": "delegation",
          "type": "tuple[]"
        },
        {
          "indexed": false,
          "internalType": "uint256",
          "name": "expiration",
          "type": "uint256"
        }
      ],
      "name": "SetDelegate",
      "type": "event"
    },
    {
      "inputs": [
        {
          "internalType": "string",
          "name": "id",
          "type": "string"
        },
        {
          "components": [
            {
              "internalType": "bytes32",
              "name": "id",
              "type": "bytes32"
            },
            {
              "internalType": "uint256",
              "name": "ratio",
              "type": "uint256"
            }
          ],
          "internalType": "struct Delegation[]",
          "name": "delegation",
          "type": "tuple[]"
        },
        {
          "internalType": "uint256",
          "name": "expirationTimestamp",
          "type": "uint256"
        }
      ],
      "name": "setDelegate",
      "outputs": [],
      "stateMutability": "nonpayable",
      "type": "function"
    }
  ],
  "bytecode": "0x608060405234801561001057600080fd5b50610b74806100206000396000f3fe608060405234801561001057600080fd5b506004361061002b5760003560e01c8063431647ef14610030575b600080fd5b61004a600480360381019061004591906106c8565b61004c565b005b60008060003373ffffffffffffffffffffffffffffffffffffffff1673ffffffffffffffffffffffffffffffffffffffff1681526020019081526020016000208460405161009a91906107c4565b90815260200160405180910390206040516020016100b89190610948565b6040516020818303038152906040528051906020012090506000836040516020016100e39190610a37565b6040516020818303038152906040528051906020012090508082148015610164575082600160003373ffffffffffffffffffffffffffffffffffffffff1673ffffffffffffffffffffffffffffffffffffffff1681526020019081526020016000208660405161015391906107c4565b908152602001604051809103902054145b1561019b576040517f5646793b00000000000000000000000000000000000000000000000000000000815260040160405180910390fd5b6000803373ffffffffffffffffffffffffffffffffffffffff1673ffffffffffffffffffffffffffffffffffffffff168152602001908152602001600020856040516101e791906107c4565b90815260200160405180910390206000610201919061039a565b60005b84518110156102cc578481815181106102205761021f610a59565b5b60200260200101516000803373ffffffffffffffffffffffffffffffffffffffff1673ffffffffffffffffffffffffffffffffffffffff1681526020019081526020016000208760405161027491906107c4565b9081526020016040518091039020828154811061029457610293610a59565b5b9060005260206000209060020201600082015181600001556020820151816001015590505080806102c490610ab7565b915050610204565b5082600160003373ffffffffffffffffffffffffffffffffffffffff1673ffffffffffffffffffffffffffffffffffffffff1681526020019081526020016000208660405161031b91906107c4565b9081526020016040518091039020819055508460405161033b91906107c4565b60405180910390203373ffffffffffffffffffffffffffffffffffffffff167f96c8da1e9f1f2a76cc774bf257d7a5848ddf47885f8b9fa65e577ac9c754e945868660405161038b929190610b0e565b60405180910390a35050505050565b50805460008255600202906000526020600020908101906103bb91906103be565b50565b5b808211156103e1576000808201600090556001820160009055506002016103bf565b5090565b6000604051905090565b600080fd5b600080fd5b600080fd5b600080fd5b6000601f19601f8301169050919050565b7f4e487b7100000000000000000000000000000000000000000000000000000000600052604160045260246000fd5b61044c82610403565b810181811067ffffffffffffffff8211171561046b5761046a610414565b5b80604052505050565b600061047e6103e5565b905061048a8282610443565b919050565b600067ffffffffffffffff8211156104aa576104a9610414565b5b6104b382610403565b9050602081019050919050565b82818337600083830152505050565b60006104e26104dd8461048f565b610474565b9050828152602081018484840111156104fe576104fd6103fe565b5b6105098482856104c0565b509392505050565b600082601f830112610526576105256103f9565b5b81356105368482602086016104cf565b91505092915050565b600067ffffffffffffffff82111561055a57610559610414565b5b602082029050602081019050919050565b600080fd5b600080fd5b6000819050919050565b61058881610575565b811461059357600080fd5b50565b6000813590506105a58161057f565b92915050565b6000819050919050565b6105be816105ab565b81146105c957600080fd5b50565b6000813590506105db816105b5565b92915050565b6000604082840312156105f7576105f6610570565b5b6106016040610474565b9050600061061184828501610596565b6000830152506020610625848285016105cc565b60208301525092915050565b600061064461063f8461053f565b610474565b905080838252602082019050604084028301858111156106675761066661056b565b5b835b81811015610690578061067c88826105e1565b845260208401935050604081019050610669565b5050509392505050565b600082601f8301126106af576106ae6103f9565b5b81356106bf848260208601610631565b91505092915050565b6000806000606084860312156106e1576106e06103ef565b5b600084013567ffffffffffffffff8111156106ff576106fe6103f4565b5b61070b86828701610511565b935050602084013567ffffffffffffffff81111561072c5761072b6103f4565b5b6107388682870161069a565b9250506040610749868287016105cc565b9150509250925092565b600081519050919050565b600081905092915050565b60005b8381101561078757808201518184015260208101905061076c565b60008484015250505050565b600061079e82610753565b6107a8818561075e565b93506107b8818560208601610769565b80840191505092915050565b60006107d08284610793565b915081905092915050565b600081549050919050565b600082825260208201905092915050565b60008190508160005260206000209050919050565b60008160001c9050919050565b6000819050919050565b60006108366108318361080c565b610819565b9050919050565b61084681610575565b82525050565b6000819050919050565b60006108696108648361080c565b61084c565b9050919050565b610879816105ab565b82525050565b60408201600080830154905061089481610823565b6108a1600086018261083d565b50600183015490506108b281610856565b6108bf6020860182610870565b5050505050565b60006108d2838361087f565b60408301905092915050565b6000600282019050919050565b60006108f6826107db565b61090081856107e6565b935061090b836107f7565b8060005b8381101561093b578161092288826108c6565b975061092d836108de565b92505060018101905061090f565b5085935050505092915050565b6000602082019050818103600083015261096281846108eb565b905092915050565b600081519050919050565b6000819050602082019050919050565b60408201600082015161099b600085018261083d565b5060208201516109ae6020850182610870565b50505050565b60006109c08383610985565b60408301905092915050565b6000602082019050919050565b60006109e48261096a565b6109ee81856107e6565b93506109f983610975565b8060005b83811015610a2a578151610a1188826109b4565b9750610a1c836109cc565b9250506001810190506109fd565b5085935050505092915050565b60006020820190508181036000830152610a5181846109d9565b905092915050565b7f4e487b7100000000000000000000000000000000000000000000000000000000600052603260045260246000fd5b7f4e487b7100000000000000000000000000000000000000000000000000000000600052601160045260246000fd5b6000610ac2826105ab565b91507fffffffffffffffffffffffffffffffffffffffffffffffffffffffffffffffff8203610af457610af3610a88565b5b600182019050919050565b610b08816105ab565b82525050565b60006040820190508181036000830152610b2881856109d9565b9050610b376020830184610aff565b939250505056fea264697066735822122025fbbf919db791bb620f17b05d177bfb9efbd3eae34febed274de0b1e498a68764736f6c63430008110033",
  "linkReferences": {},
  "deployedLinkReferences": {}
}