{
  "address": "0xd1003c7157d30F39C524A16D97131dF39ee72fD9",
  "abi": [
    {
      "anonymous": false,
      "inputs": [
        {
          "indexed": true,
          "internalType": "address",
          "name": "account",
          "type": "address"
        },
        {
          "indexed": false,
          "internalType": "string",
          "name": "context",
          "type": "string"
        },
        {
          "components": [
            {
              "internalType": "bytes32",
              "name": "delegate",
              "type": "bytes32"
            },
            {
              "internalType": "uint256",
              "name": "ratio",
              "type": "uint256"
            }
          ],
          "indexed": false,
          "internalType": "struct Delegation[]",
          "name": "previousDelegation",
          "type": "tuple[]"
        },
        {
          "components": [
            {
              "internalType": "bytes32",
              "name": "delegate",
              "type": "bytes32"
            },
            {
              "internalType": "uint256",
              "name": "ratio",
              "type": "uint256"
            }
          ],
          "indexed": false,
          "internalType": "struct Delegation[]",
          "name": "delegation",
          "type": "tuple[]"
        },
        {
          "indexed": false,
          "internalType": "uint256",
          "name": "expirationTimestamp",
          "type": "uint256"
        }
      ],
      "name": "DelegationUpdated",
      "type": "event"
    },
    {
      "inputs": [
        {
          "internalType": "address",
          "name": "delegator",
          "type": "address"
        },
        {
          "internalType": "string",
          "name": "context",
          "type": "string"
        },
        {
          "components": [
            {
              "internalType": "bytes32",
              "name": "delegate",
              "type": "bytes32"
            },
            {
              "internalType": "uint256",
              "name": "ratio",
              "type": "uint256"
            }
          ],
          "internalType": "struct Delegation[]",
          "name": "delegation",
          "type": "tuple[]"
        },
        {
          "internalType": "uint256",
          "name": "expirationTimestamp",
          "type": "uint256"
        }
      ],
      "name": "setDelegation",
      "outputs": [],
      "stateMutability": "nonpayable",
      "type": "function"
    },
    {
      "inputs": [
        {
          "internalType": "address",
          "name": "delegator",
          "type": "address"
        },
        {
          "internalType": "string",
          "name": "context",
          "type": "string"
        },
        {
          "internalType": "uint256",
          "name": "expirationTimestamp",
          "type": "uint256"
        }
      ],
      "name": "test",
      "outputs": [],
      "stateMutability": "nonpayable",
      "type": "function"
    }
  ],
  "transactionHash": "0x66672013da85314d215e5c7c6e3464aeba580278f22dd0a703f0ca3ee9a69810",
  "args": [],
  "solcInputHash": "29cbe09b19a8c801dcf5e10b90266c47",
  "bytecode": "0x608060405234801561001057600080fd5b5061043d806100206000396000f3fe608060405234801561001057600080fd5b50600436106100365760003560e01c806363548ae71461003b578063dd8d72de14610050575b600080fd5b61004e6100493660046101e2565b610063565b005b61004e61005e3660046102e8565b505050565b60608473ffffffffffffffffffffffffffffffffffffffff167fbbfaebc0e35c81daa40cc3d21316def67a6456e2b1c91d5f8ad1de9b721de37b858386866040516100b19493929190610385565b60405180910390a25050505050565b803573ffffffffffffffffffffffffffffffffffffffff811681146100e457600080fd5b919050565b7f4e487b7100000000000000000000000000000000000000000000000000000000600052604160045260246000fd5b6040805190810167ffffffffffffffff8111828210171561013b5761013b6100e9565b60405290565b604051601f8201601f1916810167ffffffffffffffff8111828210171561016a5761016a6100e9565b604052919050565b600082601f83011261018357600080fd5b813567ffffffffffffffff81111561019d5761019d6100e9565b6101b0601f8201601f1916602001610141565b8181528460208386010111156101c557600080fd5b816020850160208301376000918101602001919091529392505050565b600080600080608085870312156101f857600080fd5b610201856100c0565b935060208086013567ffffffffffffffff8082111561021f57600080fd5b61022b89838a01610172565b955060409150818801358181111561024257600080fd5b8801601f81018a1361025357600080fd5b803582811115610265576102656100e9565b610273858260051b01610141565b818152858101935060069190911b82018501908b82111561029357600080fd5b918501915b818310156102d35784838d0312156102b05760008081fd5b6102b8610118565b83358152868401358782015284529285019291840191610298565b989b979a509798606001359750505050505050565b6000806000606084860312156102fd57600080fd5b610306846100c0565b9250602084013567ffffffffffffffff81111561032257600080fd5b61032e86828701610172565b925050604084013590509250925092565b600081518084526020808501945080840160005b8381101561037a578151805188528301518388015260409096019590820190600101610353565b509495945050505050565b608081526000855180608084015260005b818110156103b357602081890181015160a0868401015201610396565b50600060a08285010152601f19601f8201168301905060a08382030160208401526103e160a082018761033f565b905082810360408401526103f5818661033f565b9150508260608301529594505050505056fea2646970667358221220ca27ab1ca66ed2f56acdd7337233280c3c73d4ae86a4f37bb12cbdbafe5a1f2464736f6c63430008110033",
  "devdoc": {
    "kind": "dev",
    "methods": {
      "setDelegation(address,string,(bytes32,uint256)[],uint256)": {
        "details": "Sets a delegate for the msg.sender and a specific context.",
        "params": {
          "context": "ID of the context in which delegation should be set.",
          "delegation": "Array of delegations. Must be sorted in numerical order, from smallest to largets.",
          "expirationTimestamp": "Unix timestamp for at which this delegation should expire."
        }
      }
    },
    "version": 1
  },
  "userdoc": {
    "kind": "user",
    "methods": {
      "setDelegation(address,string,(bytes32,uint256)[],uint256)": {
        "notice": "setDelegation() will overrite the user's previous delegation for the given context."
      }
    },
    "version": 1
  },
  "storageLayout": {
    "storage": [],
    "types": null
  }
}